:020000040800F2
:10000000E8080020710200087F0200088102000851
:100010008302000885020008870200080000000033
:10002000000000000000000000000000890200083D
:100030008B020008000000008D0200088F020008FB
:100040009102000891020008910200089102000844
:100050009102000891020008910200089102000834
:100060009102000891020008910200089102000824
:100070009102000891020008910200089102000814
:100080009102000891020008910200089102000804
:1000900091020008910200089102000891020008F4
:1000A00091020008910200089102000891020008E4
:1000B00091020008FD130008910200089102000857
:1000C00091020008910200089102000891020008C4
:1000D00091020008ED140008910200089102000846
:1000E00091020008910200089102000891020008A4
:1000F0009102000891020008910200089102000894
:100100009102000891020008910200089102000883
:100110009102000891020008910200089102000873
:100120009102000891020008910200089102000863
:100130009102000891020008910200089102000853
:100140009102000891020008910200089102000843
:100150009102000891020008910200089102000833
:100160009102000891020008910200089102000823
:100170009102000891020008910200089102000813
:10018000910200089102000800F002F800F060F807
:100190000AA090E8000C82448344AAF10107DA45E2
:1001A00001D100F055F8AFF2090EBAE80F0013F0D4
:1001B000010F18BFFB1A43F0010318479C300000E1
:1001C000BC30000010F8013B0A4413F0030408BFE0
:1001D00010F8014B1D1108BF10F8015B641E05D01B
:1001E00010F8016B641E01F8016BF9D1002D15D0D8
:1001F00010F8014B03F00C030C2BA1EB04040ABF15
:1002000010F8013BA4EB8314A4EB032405F10103D4
:1002100014F8016B5B1E01F8016BF9D5914238BFF0
:1002200010F8013BD1D3704700230024002500269D
:10023000103A28BF78C1FBD8520728BF30C148BF49
:100240000B6070471FB502F0FCFF1FBD10B510BD5D
:1002500000F035F81146FFF7F5FF02F0B1F900F0B4
:1002600053F803B4FFF7F2FF03BC01F083F9000079
:100270000B48016841F4700101600A480047FEE73D
:10028000FEE7FEE7FEE7FEE7FEE7FEE7FEE7FEE746
:10029000FEE7000004480549034A054B704700008B
:1002A00088ED00E089010008E8040020E80800204B
:1002B000E8040020704770477047704770477546E4
:1002C00000F028F8AE4605006946534620F00700C6
:1002D000854618B020B5FFF7DDFFBDE820404FF0A0
:1002E00000064FF000074FF000084FF0000B21F020
:1002F0000701AC46ACE8C009ACE8C009ACE8C009ED
:10030000ACE8C0098D4670470446AFF30080204634
:10031000FFF7A7FF004870478804002070B52DED57
:10032000068BB0EE409AF0EE608AF5EEC08AF1EEF0
:1003300010FA5FDB69EE090A48EEA80AB0EE600A1F
:1003400000F0B0FEB0EE408A89EE080AF0EE409A66
:100350009FED580A08EE080ADFED570A70EE600AB2
:10036000B0EE001A80EE810A9FED541AC0EE010A29
:1003700080EE880AB0EE40AA9FED4F0A08EE080A08
:10038000DFED4C0A30EE600AB0EE001AC0EE010A52
:100390009FED4B1A80EE810AC0EE080AF0EE60AACB
:1003A000B0EE690A00F056FE0446B0EE4A0A00F0CC
:1003B00051FE0546B0EE6A0A00F04CFE0646A01B50
:1003C000C0F15A003F4931F810003F490880A81990
:1003D000C0F15A003B4931F810003B494880C4F154
:1003E000B400401B374931F810003749888002F0CB
:1003F00081F95CE069EE090A48EEA80AB0EE600AED
:1004000000F050FEB0EE408A89EE080AF0EE409A05
:100410009FED290A08EE080ADFED2C0A70EE600A4B
:10042000B0EE001A80EE810A9FED251AC0EE010A97
:1004300080EE880AB0EE40AA9FED250A08EE480A31
:10044000B0EE001AC0EE010A9FED1D1A80EE810A7F
:10045000DFED200A80EE201AF0EE41AAB0EE690A24
:1004600000F0F8FD0446B0EE4A0A00F0F3FD054640
:10047000B0EE6A0A00F0EEFD0646A6F15A001149F8
:1004800031F8100010490880281B5A300D4931F806
:1004900010000D494880084600880F4908600A4846
:1004A00040880907086440F6C410486300BFBDECEB
:1004B000068B70BD00442C46000413460000D24257
:1004C0000000C24220030020440000200000C84673
:1004D00000C1084700002043340C004030B5CC1068
:1004E00000F1200353F824304C07E50E0F24AC40F4
:1004F000A343CD1000F1200444F82530CC1000F1C6
:10050000200353F824304C07E40E02FA04F423438A
:10051000CD1000F1200444F8253030BD2DE9F0471E
:100520000C46DDE90867002100258C4600BF60E02D
:100530004FF0010808FA01F504EA050CAC4557D163
:10054000D0F800804FEA410A4FF0030909FA0AF98E
:1005500028EA0908C0F80080D0F800804FEA410975
:1005600002FA09F948EA0908C0F80080012A01D016
:10057000022A27D1D0F808804FEA410A4FF0030938
:1005800009FA0AF928EA0908C0F80880D0F80880B2
:100590004FEA410906FA09F948EA0908C0F8088053
:1005A000D0F804904FF0010808FA01F829EA080988
:1005B000C0F80490D0F8048003FA01F948EA090869
:1005C000C0F80480D0F80C804FEA410A4FF00309CC
:1005D00009FA0AF928EA0908C0F80C80D0F80C805A
:1005E0004FEA410907FA09F948EA0908C0F80C80FE
:1005F000491C10299CD3BDE8F087000010B52DEDF3
:10060000068B01241CE0204602F0ABFB41EC1A0BE8
:100610009FED0E0B53EC102B02F0BAFB41EC190BC3
:100620009FED0C0B53EC102B02F026F941EC180B4C
:1006300002F06AFB81B2601E084A22F81010641CA6
:10064000B52CE0DBBDEC068B10BD0000B81E85EBC1
:10065000513826400000000000407F402003002069
:100660001CB50B48006840F02000094908600120D3
:10067000032100230246CDE9001049020548FFF797
:100680004DFF0120044908600449C1F8A8021CBDBF
:100690003038024000140240A482424200804242AC
:1006A0002DE9F0410746884614461D46284600F0CD
:1006B00033F8C5F1040007FA00F60F20284100EADC
:1006C0000800064306F00F06E21704EBD26252114F
:1006D000920002F1E022D2F800212146E31704EB58
:1006E000D3635B11A4EB431C012303FA0CF31A43FD
:1006F0002046E31704EBD3635B119B0003F1E02377
:10070000C3F800210348005D40EA0610014908557E
:10071000BDE8F08100E400E00146072323EA01027E
:100720001202054B18684FF6FF031840034B18439D
:100730001043014B186070470CED00E00000FA0513
:100740004A0A52020243014B1A60704708ED00E06A
:1007500010B5FD480078012879D1FC4800781028B0
:1007600076D2DFE800F00816F8F6F5F4F3F2F1F0CF
:10077000EFEEEDECEBEA0020F3490870F449086075
:10078000F449C1F8A002F4490860F449C1F8BC0278
:100790003AE20020F2490860F24890ED000A20EEAB
:1007A000000AF148D0ED000A90ED001A00EE810A2F
:1007B000DFEDEE0AB4EEE00AF1EE10FA49D8E948AE
:1007C00090ED000ADFEDEA0AB4EEE00AF1EE10FA6D
:1007D0003FD2E54890ED000AB5EEC00AF1EE10FAFE
:1007E00037DDE04890ED000A20EE000ADE48D0ED4B
:1007F000000A90ED001A00EE810ADFEDDE0AB4EE89
:10080000E00AF1EE10FA10DB90ED000ADFEDDA0AF3
:10081000B4EEE00AF1EE10FA07DB90ED000ADFED2E
:10082000D60A30EE600A80ED000ACE4890ED000A4C
:10083000DFEDD10A30EE200A80ED000ACA48D0ED83
:10084000000AC84890ED000AFFF768FD74E0F3E382
:10085000ECE3C44890ED000A20EE000AC248D0ED57
:10086000000A90ED001A00EE810ADFEDC00AB4EE36
:10087000E00AF1EE10FA10DD90ED000AB5EEC00AC4
:10088000F1EE10FA09DDB74890ED000ADFEDBA0A83
:1008900030EE600A80ED000A4EE0B24890ED000AAA
:1008A00020EE000AB048D0ED000A90ED001A00EEEC
:1008B000810ADFEDB20AB4EEE00AF1EE10FA3BD89D
:1008C00090ED000AB5EEC00AF1EE10FA34D8A54852
:1008D00090ED000A20EE000AA348D0ED000A90ED4A
:1008E000001A00EE810ADFEDA60AB4EEE00AF1EE8E
:1008F00010FA10DB90ED000ADFEDA20AB4EEE00A78
:10090000F1EE10FA07D890ED000ADFED9B0A30EE09
:10091000200A80ED000A934890ED000ADFED960A68
:1009200030EE200A80ED000A8F48D0ED000A8D4895
:1009300090ED000AFFF7F2FC79E320E3F3E2D3E263
:10094000BDE2A8E292E27BE263E24CE234E21DE225
:100950005BE172E0FFE7002081490860814890ED8B
:10096000000A20EE000A8048D0ED000A90ED001A3F
:1009700000EE810ADFED840AB4EEE00AF1EE10FA2F
:100980003EDB784890ED000AF7EE000AB4EEE00A8C
:10099000F1EE10FA34DD90ED000A20EE000A724804
:1009A000D0ED000A90ED001A00EE810ADFED770A23
:1009B000B4EEE00AF1EE10FA10D890ED000ADFED87
:1009C0006C0AB4EEE00AF1EE10FA07D290ED000ADC
:1009D000DFED690A30EE200A80ED000A614890EDF3
:1009E000000ADFED650A30EE600A80ED000A5E481D
:1009F000D0ED000A5B4890ED000AFFF78FFC1BE08A
:100A0000584890ED000A20EE000A5748D0ED000A41
:100A100090ED001A00EE810ADFED5B0AB4EEE00A09
:100A2000F1EE10FA08D24F4890ED000ADFED520ABD
:100A300030EE200A80ED000AF9E200204849086003
:100A4000494890ED000AB5EEC00AF1EE10FA64DDF7
:100A5000444890ED000A20EE000A4348D0ED000A19
:100A600090ED001A00EE810ADFED400AB4EEE00AD4
:100A7000F1EE10FA35D23B4890ED000A20EE000A64
:100A80003948D0ED000A90ED001A00EE810ADFED42
:100A9000390AB4EEE00AF1EE10FA11DB314890EDBC
:100AA000000AF7EE000AB4EEE00AF1EE10FA07DDF4
:100AB00090ED000ADFED300A30EE600A80ED000AAA
:100AC000294890ED000ADFED2C0A30EE200A80ED77
:100AD000000AD0ED000A234890ED000AFFF71EFC43
:100AE00092E0204890ED000A20EE000A1E48D0ED6A
:100AF000000A90ED001A00EE810ADFED1C0AB4EE48
:100B0000E00AF1EE10FA7FDB90ED000ADFED1A0A41
:100B100030EE600A80ED000A76E0124890ED000A9F
:100B200020EE000A1048D0ED000A90ED001A00EE09
:100B3000810ADFED170AB4EEE00AF1EE10FA38D2BE
:100B4000084890ED000A25E0050000200400002080
:100B50008002424200804042908240420000434274
:100B6000A8824242080000200C00002000601F47BD
:100B70000000484300701447CDCCCC3D00017E47B7
:100B800000197A47CDCCCCBD0028A04600E0AB468A
:100B900000A00C475FED0A0AB4EEE00AF1EE10FA8D
:100BA00007D290ED000A5FED0C0A30EE200A80EDCE
:100BB000000AFE4890ED000A5FED110A30EE200AAF
:100BC00080ED000AD0ED000AF94890ED000AFFF729
:100BD000A5FBF74890ED000A20EE000AF348D0ED9F
:100BE000000A90ED001A00EE810ADFEDF20AB4EE81
:100BF000E00AF1EE10FA07D890ED000A5FED220A44
:100C000030EE600A80ED000A11E20020EA49086037
:100C1000E64890ED000AB5EEC00AF1EE10FA64DD88
:100C2000E34890ED000A20EE000AE048D0ED000A0B
:100C300090ED001A00EE810ADFEDE00AB4EEE00A62
:100C4000F1EE10FA35DDDA4890ED000A20EE000AE8
:100C5000D648D0ED000A90ED001A00EE810ADFEDD3
:100C6000D80AB4EEE00AF1EE10FA11D2D04890EDB5
:100C7000000A5FED410AB4EEE00AF1EE10FA07D285
:100C800090ED000A5FED440A30EE200A80ED000A84
:100C9000C64890ED000A5FED480A30EE600A80ED2C
:100CA000000AD0ED000AC24890ED000AFFF736FBBB
:100CB0006BE0BF4890ED000A20EE000ABB48D0ED83
:100CC000000A90ED001A00EE810ADFEDBC0AB4EED6
:100CD000E00AF1EE10FA58D890ED000A5FED5A0ADA
:100CE00030EE200A80ED000A4FE0B14890ED000A96
:100CF00020EE000AAD48D0ED000A90ED001A00EE9B
:100D0000810A5FED5D0AB4EEE00AF1EE10FA11D24D
:100D1000A74890ED000AF7EE000AB4EEE00AF1EE03
:100D200010FA07DD90ED000A5FED6D0A30EE200A43
:100D300080ED000A9D4890ED000A5FED710A30EEEB
:100D4000600A80ED000AD0ED000A994890ED000A93
:100D5000FFF7E4FA964890ED000A20EE000A934867
:100D6000D0ED000A90ED001A00EE810ADFED910A45
:100D7000B4EEE00AF1EE10FA07D890ED000A5FED4C
:100D8000820A30EE200A80ED000A50E14FF08040E8
:100D9000C06BB0F51C6F03D940F6C1108107C86362
:100DA0004FF08040C06B401C4FF08041C8634FF44F
:100DB000FA7001F0FBFB3AE14FF08040C06BB0F5F8
:100DC000FC7F04D240F2F7104FF08041C8634FF02F
:100DD0008040C06B401E4FF08041C8634FF4FA70F2
:100DE00001F0E4FB23E14FF08040806BB0F51C6F15
:100DF00003D940F6C110810788634FF08040806BB3
:100E0000801C4FF0804188634FF4FA7001F0CEFBF4
:100E10000DE14FF08040806BB0F5BC6F04D240F222
:100E2000DF504FF0804188634FF08040806B801E20
:100E30004FF0804188634FF4FA7001F0B7FBF6E0A1
:100E400000205D49086001205E49C1F88002002051
:100E50005D49086001205C491039086000205B4949
:100E600008604FF4FA7001F0A1FBE0E00020524965
:100E700008605449C1F880020120534908600020ED
:100E80005149103908600120504908604FF4FA7048
:100E900001F08CFBCBE00020474908604949C1F8CC
:100EA0008002012048490860474910390860002045
:100EB000464908604FF4FA7001F078FBB7E0002073
:100EC0003D49086001203F49C1F8800200203E49A9
:100ED00008603D491039086001203C4908604FF422
:100EE000FA7001F063FBA2E04FF08040806B38495C
:100EF00008804FF08040C06B00EE100AB8EE400A48
:100F0000344880ED000A2A4890ED000A324880ED0E
:100F1000000A264890ED000A304880ED000A0020C3
:100F20002F49087083E04FF08040806B2D49088086
:100F30004FF08040C06B00EE100AB8EE400A2A481D
:100F400080ED000A1A4890ED000A284880ED000A5A
:100F5000164890ED000A264880ED000A0020164948
:100F6000086001202349086000201D49087001E045
:100F700000F004FB1F4800680028F9D157E040F654
:100F8000C110134908809FED1C0A124880ED000A29
:100F9000B2EE040A104880ED000A9FED180A0F48CF
:100FA00080ED000A40F2DF500E4929E00C000020DD
:100FB0000800002000B80847A882424200A49F46CB
:100FC00000B0B34600004242A0824042BC0243420D
:100FD0002C00002020000020100000201400002021
:100FE000050000202E000020240000201800002012
:100FF0001C000020280000200000FA4400001643D6
:1010000008809FED0E0A0E4880ED000A9FED0D0A44
:101010000D4880ED000A9FED0B0A0C4880ED000A98
:1010200000200B49087000F0A9FA00E000BF00BFE3
:101030004FF4AF7001F0BAFA10BD000000007A441E
:10104000240000200000A042180000201C00002006
:101050000500002010B50123B4221DE0981800EB14
:10106000D07461100E4800EB8100D0ED000AF4EE60
:10107000C00AF1EE10FA01DD4B1C0DE0084800EB50
:101080008100D0ED000AF4EEC00AF1EE10FA01D2B0
:101090004A1E01E0084610BD9342DFDB1046FAE726
:1010A0004C00002010B52DED0C8BB0EE409A9FED5A
:1010B000200BB0EE408AF0EE608AB0EE000AC9EE76
:1010C000000A10EE904A204602F04AF841EC1A0B52
:1010D0001DE0B0EE4A8AF0EE6A8A19EE100A02F0BC
:1010E0003FF841EC1D0B53EC182B01F079FC41EC5F
:1010F0001C0B53EC182B01F0BFFB41EC1B0B9FEDBD
:101100000E0B53EC102B01F06BFC41EC1A0B53EC63
:101110001A2B51EC180B01F0BBFDDAD151EC180B76
:1011200001F078FB00EE100ABDEC0C8B10BD000046
:10113000000000000000000000000000000000406F
:10114000F0B504460D4616461F461448006840F0A8
:1011500001001249086000201049083108600F485A
:1011600000680F4908400D4908600E48091D0860D5
:10117000081F006820F48020091F0860002007492C
:101180000C3108603B4632462946204600F00CF8F8
:1011900000210846FFF7D4FAF0BD000000380240F5
:1011A000FFFFF6FE10300024F0B504460D46002186
:1011B00000203D4E366846F480363B4F3E6001E0ED
:1011C0004E1CB1B2384E366806F400361EB941F6F0
:1011D000FF76B142F4DB41F6FF76B14201D1012046
:1011E00060E0314E4036366846F080562E4F40372C
:1011F0003E602E4E366846F440462C4F3E602A4EE6
:101200000836366846F41446274F08373E60264EA7
:10121000366826F08076244F3E6045EA8416012722
:10122000C7EB520746EA074646EA036646F48006DD
:101230001D4F3F1D3E603E1F366846F080763F1FC3
:101240003E6000BF184E366806F00076002EF9D0DA
:10125000174E366846F48076154F3E603E46366837
:1012600046F400763E603E46366846F480663E6050
:101270003E46366846F005063E600B4E0836366838
:1012800026F00306084F08373E603E46366846F0B3
:1012900002063E6000BF044E0836366806F00C06B3
:1012A000082EF8D1F0BD0000003802400070004068
:1012B000003C02407CB505460C464D48006840F0B5
:1012C00001004B4908604A481038006840F00100AE
:1012D0004749103908600846006840F0020008607D
:1012E0000120032100230222CDE9001020214148E2
:1012F000FFF714F90120032100230222CDE9001099
:1013000008213D48FFF70AF90120032100230222AA
:10131000CDE9001004213748FFF700F9012003212F
:1013200000230222CDE9001008213248FFF7F6F829
:10133000012205212F48FFF7D1F8012203212E4871
:10134000FFF7CCF8012202212A48FFF7C7F8012253
:1013500003212848FFF7C2F84FF08040C56204859A
:10136000008B40F060004FF0804108830846008BFE
:1013700040F4C04008830846808B40F060008883BA
:101380000846808B40F4C04088830846008B40F0BC
:10139000080008830846008B40F400600883084674
:1013A000808B40F0080088830846808B40F4006002
:1013B00088830846008C40F0010008840846008CB1
:1013C00040F0100008840846008C40F480700884C7
:1013D0000846008C40F4805008840846008840F09D
:1013E000800008800846008840F0010008807CBD2D
:1013F00040380240000002400004024004480088D7
:101400000348008820F0010001490880704700006F
:10141000100400407CB505460C463148006840F099
:1014200008002F4908602E481038006840F001007D
:101430002B49103908600120032100230222CDE945
:10144000001001462748FFF769F801200321002317
:101450000222CDE9001011462248FFF75FF8022270
:1014600000212048FFF73AF8022201211D48FFF72A
:1014700035F81D480560001F04801B48143800889B
:1014800040F060001849143908800846008840F48C
:10149000C04008800846008840F0080008800846E0
:1014A000008840F4006008800F480C38008840F045
:1014B00001000D490C3908800846008840F01000F2
:1014C000088009482C38008840F0800006492C39F3
:1014D00008800846008840F0010008807CBD0000BC
:1014E00040380240000002402C0C004010B51D485E
:1014F000008800F02000002832D000200023194A84
:101500009288194C227022461278802A20DB2246CB
:10151000117800BF01F001020AB1421CD0B249109B
:101520001A465B1C072AF5DB024600EBD2746410F6
:10153000A0EB440464B10C4A127852100A4C227099
:101540002246127802F00F0222700122074C22700C
:10155000054A12780E2A02D00022054C226000BFF4
:1015600010BD000000100140040000200500002014
:1015700028000020014600BF7047000010B5002081
:10158000FE4908606FE04FF08040C06B00EE100A2B
:10159000B8EE400AFA48D0ED000AB4EEE00AF1EEE7
:1015A00010FA07D24FF08040C06B401C4FF08041D2
:1015B000C86306E04FF08040C06B401E4FF0804192
:1015C000C8634FF4167000F0F1FF4FF08040C06B1D
:1015D00000EE100AB8EE400AE948D0ED000AB4EE79
:1015E000E00AF1EE10FA12DD4FF08040C06B00EE21
:1015F000100AB8EE400AE248D0ED000A30EE600A68
:10160000F7EE000AB4EEE00AF1EE10FA21D34FF043
:101610008040C06B00EE100AB8EE400AD848D0ED0A
:10162000000AB4EEE00AF1EE10FA1CD24FF080404E
:10163000C06B00EE100AB8EE400AD148D0ED000AA7
:1016400030EEC00AF7EE000AB4EEE00AF1EE10FA4E
:1016500009D2CB4890ED000ABCEEC00A10EE100A89
:101660004FF08041C8634FF08040C06B00EE100A1D
:10167000B8EE400AC248D0ED000AB4EE600AF1EEBE
:1016800010FA80D10AE3BF4890ED000ABE48D0EDC1
:10169000000AB4EEE00AF1EE10FA7CD2B94890EDFF
:1016A000000A20EE000AB948D0ED000A90ED001AB9
:1016B00000EE810ADFEDB60AB4EEE00AF1EE10FAB0
:1016C00047D8B04890ED000ADFEDB20AB4EEE00A68
:1016D000F1EE10FA3DD2AD4890ED000AB5EEC00A29
:1016E000F1EE10FA35DDA74890ED000A20EE000A71
:1016F000A648D0ED000A90ED001A00EE810ADFED59
:10170000A60AB4EEE00AF1EE10FA10DB90ED000A42
:10171000DFEDA20AB4EEE00AF1EE10FA07DB90ED7D
:10172000000ADFED9E0A30EE600A80ED000A95485F
:1017300090ED000ADFED990A30EE200A80ED000AF4
:101740009248D0ED000A8F4890ED000AFEF7E6FDC2
:10175000EEE08C4890ED000A20EE000A8B48D0EDB8
:10176000000A90ED001A00EE810ADFED890AB4EE5E
:10177000E00AF1EE10FA12DD90ED000AB5EEC00AB3
:10178000F1EE10FA0BDD7F4890ED000ADFED830AE1
:1017900030EE600A00E052E080ED000AC8E07948CF
:1017A00090ED000A20EE000A7848D0ED000A90ED96
:1017B000001A00EE810ADFED7A0AB4EEE00AF1EEDB
:1017C00010FA3BD890ED000AB5EEC00AF1EE10FA1F
:1017D00034D86C4890ED000A20EE000A6B48D0ED3A
:1017E000000A90ED001A00EE810ADFED6E0AB4EEF9
:1017F000E00AF1EE10FA10DB90ED000ADFED6A0A64
:10180000B4EEE00AF1EE10FA07D890ED000ADFED31
:10181000630A30EE200A80ED000A5A4890ED000A73
:10182000DFED5E0A30EE200A80ED000A5748D0ED69
:10183000000A544890ED000AFEF770FD78E0514828
:1018400090ED000A5048D0ED000AB4EEE00AF1EE47
:1018500010FA6DDD4B4890ED000A20EE000A4B486F
:10186000D0ED000A90ED001A00EE810ADFED4F0A7C
:10187000B4EEE00AF1EE10FA3EDB424890ED000AC9
:10188000F7EE000AB4EEE00AF1EE10FA34DD90ED66
:10189000000A20EE000A3D48D0ED000A90ED001A43
:1018A00000EE810ADFED420AB4EEE00AF1EE10FA32
:1018B00010D890ED000ADFED370AB4EEE00AF1EE41
:1018C00010FA07D290ED000ADFED340A30EE200A5C
:1018D00080ED000A2B4890ED000ADFED300A30EE73
:1018E000600A80ED000A2948D0ED000A254890EDF5
:1018F000000AFEF713FD1BE0224890ED000A20EEDF
:10190000000A2248D0ED000A90ED001A00EE810A8C
:10191000DFED260AB4EEE00AF1EE10FA08D219481B
:1019200090ED000ADFED1D0A30EE200A80ED000A7E
:10193000164890ED000A1F48D0ED000AB4EEE00A08
:10194000F1EE10FA6FD2114890ED000AB5EEC00A20
:10195000F1EE10FA68DD0B4890ED000A20EE000A67
:101960000A48D0ED000A90ED001A00EE810ADFED82
:10197000080AB4EEE00AF1EE10FA1DE0A482424239
:101980002000002008000020100000200C00002093
:1019900000601F470000484300701447CDCCCC3D89
:1019A00000017E4700197A47CDCCCCBD0028A04667
:1019B00000E0AB461400002037D2FE4890ED000A4C
:1019C00020EE000AFC48D0ED000A90ED001A00EE6F
:1019D000810A5FED0F0AB4EEE00AF1EE10FA11DBB6
:1019E000F44890ED000AF7EE000AB4EEE00AF1EEDA
:1019F00010FA07DD90ED000A5FED180A30EE600A7C
:101A000080ED000AEC4890ED000A5FED1C0A30EE14
:101A1000200A80ED000AD0ED000AE64890ED000AA9
:101A2000FEF77CFC36E16DE01BE0E24890ED000A39
:101A300020EE000AE048D0ED000A90ED001A00EE1A
:101A4000810A5FED2D0AB4EEE00AF1EE10FAE9DB4F
:101A500090ED000A5FED2F0A30EE600A80ED000A7B
:101A600018E1D44890ED000A20EE000AD248D0EDEB
:101A7000000A90ED001A00EE810ADFEDD00AB4EE04
:101A8000E00AF1EE10FA11D2CA4890ED000A5FEDBB
:101A90003F0AB4EEE00AF1EE10FA07D290ED000A28
:101AA0005FED420A30EE200A80ED000AC24890ED58
:101AB000000A5FED460A30EE200A80ED000AD0ED04
:101AC000000ABC4890ED000AFEF728FCB94890EDEA
:101AD000000A20EE000AB848D0ED000A90ED001A86
:101AE00000EE810ADFEDB60AB4EEE00AF1EE10FA7C
:101AF00007D890ED000A5FED570A30EE600A80EDDE
:101B0000000AC7E0AC4890ED000AAE48D0ED000AEC
:101B1000B4EEE00AF1EE10FA4FDDA74890ED000AAE
:101B2000B5EEC00AF1EE10FA64DDA24890ED000AAD
:101B300020EE000AA048D0ED000A90ED001A00EE59
:101B4000810ADFEDA10AB4EEE00AF1EE10FA35DD0C
:101B5000984890ED000A20EE000A9748D0ED000A60
:101B600090ED001A00EE810ADFED980AB4EEE00A6B
:101B7000F1EE10FA11D28F4890ED000A5FED7B0A6A
:101B8000B4EEE00AF1EE10FA07D290ED000A5FED34
:101B90007D0A30EE200A80ED000A874890ED000AA9
:101BA0005FED820A30EE600A80ED000AD0ED000A97
:101BB000804890ED000AFEF7B1FB6BE07D4890EDA8
:101BC000000A20EE000A7C48D0ED000A90ED001AD1
:101BD00000EE810ADFED7C0AB4EEE00AF1EE10FAC5
:101BE00058D890ED000A5FED930A30EE200A80EDA0
:101BF000000A4FE06F4890ED000A20EE000A6E48A0
:101C0000D0ED000A90ED001A00EE810ADFED6B0ABC
:101C1000B4EEE00AF1EE10FA11D2664890ED000A37
:101C2000F7EE000AB4EEE00AF1EE10FA07DD90EDEF
:101C3000000A5FEDA60A30EE200A80ED000A5E4839
:101C400090ED000A5FEDAB0A30EE600A80ED000A0D
:101C5000D0ED000A574890ED000AFEF75FFB5548AB
:101C600090ED000A20EE000A5348D0ED000A90EDF6
:101C7000001A00EE810ADFED520AB4EEE00AF1EE3E
:101C800010FA07D890ED000A5FEDBC0A30EE200A8A
:101C900080ED000A40F28A2000F088FC454890ED73
:101CA000000A4B48D0ED000AB4EE600AF1EE10FADB
:101CB0007FF4E9AC404890ED000A4248D0ED000ABC
:101CC000B4EE600AF1EE10FAF2D13AE04FF0804043
:101CD000806B40490988884207D24FF08040806B72
:101CE000401C4FF08041886306E04FF08040806BDD
:101CF000401E4FF0804188634FF4167000F056FC90
:101D00004FF08040806B33490988884206D94FF0F4
:101D10008040806B2F490988401A0DD04FF08040D9
:101D2000806B2C49098888420BD24FF08040806B31
:101D300028490988081A04D1264800884FF08041B4
:101D400088634FF08040806B224909888842BDD16A
:101D500084E04FF08040C06B00EE100AB8EE400AFD
:101D60001D48D0ED000AB4EEE00AF1EE10FA07D2F9
:101D70004FF08040C06B401C4FF08041C86306E0CC
:101D80004FF08040C06B401E4FF08041C8634FF45D
:101D9000167000F00BFC4FF08040C06B00EE100A94
:101DA000B8EE400A0C48D0ED000AB4EEE00AF1EEBD
:101DB00010FA13E0080000200C00002000A00C47DF
:101DC00000B808471400002000A49F4600B0B346A6
:101DD000100000202C0000202400002012DD4FF015
:101DE0008040C06B00EE100AB8EE400AFC48D0ED0F
:101DF000000A30EE600AF7EE000AB4EEE00AF1EEF7
:101E000010FA21D34FF08040C06B00EE100AB8EEFC
:101E1000400AF348D0ED000AB4EEE00AF1EE10FA01
:101E20001CD24FF08040C06B00EE100AB8EE400AA2
:101E3000EB48D0ED000A30EEC00AF7EE000AB4EE2F
:101E4000E00AF1EE10FA09D2E54890ED000ABCEE86
:101E5000C00A10EE100A4FF08041C8634FF0804076
:101E6000C06B00EE100AB8EE400ADD48D0ED000A63
:101E7000B4EE600AF1EE10FA7FF46BAF08E3D948D4
:101E800090ED000AD848D0ED000AB4EEE00AF1EE79
:101E900010FA7CD2D34890ED000A20EE000AD34815
:101EA000D0ED000A90ED001A00EE810ADFEDD00AB5
:101EB000B4EEE00AF1EE10FA47D8CA4890ED000AF5
:101EC000DFEDCC0AB4EEE00AF1EE10FA3DD2C748DD
:101ED00090ED000AB5EEC00AF1EE10FA35DDC1480A
:101EE00090ED000A20EE000AC048D0ED000A90ED07
:101EF000001A00EE810ADFEDC00AB4EEE00AF1EE4E
:101F000010FA10DB90ED000ADFEDBC0AB4EEE00A37
:101F1000F1EE10FA07DB90ED000ADFEDB80A30EEC3
:101F2000600A80ED000AAF4890ED000ADFEDB30AC9
:101F300030EE200A80ED000AAC48D0ED000AA94836
:101F400090ED000AFEF7EAF9EEE0A64890ED000AEF
:101F500020EE000AA548D0ED000A90ED001A00EE30
:101F6000810ADFEDA30AB4EEE00AF1EE10FA12DD09
:101F700090ED000AB5EEC00AF1EE10FA0BDD9948BB
:101F800090ED000ADFED9D0A30EE600A00E052E0BD
:101F900080ED000AC8E0934890ED000A20EE000AA8
:101FA0009248D0ED000A90ED001A00EE810ADFEDB4
:101FB000940AB4EEE00AF1EE10FA3BD890ED000A74
:101FC000B5EEC00AF1EE10FA34D8864890ED000A5A
:101FD00020EE000A8548D0ED000A90ED001A00EED0
:101FE000810ADFED880AB4EEE00AF1EE10FA10DBA8
:101FF00090ED000ADFED840AB4EEE00AF1EE10FA8B
:1020000007D890ED000ADFED7D0A30EE200A80ED62
:10201000000A744890ED000ADFED780A30EE200ADD
:1020200080ED000A7148D0ED000A6E4890ED000A7C
:10203000FEF774F978E06B4890ED000A6A48D0ED3D
:10204000000AB4EEE00AF1EE10FA6DDD654890ED9D
:10205000000A20EE000A6548D0ED000A90ED001A53
:1020600000EE810ADFED690AB4EEE00AF1EE10FA43
:102070003EDB5C4890ED000AF7EE000AB4EEE00AA1
:10208000F1EE10FA34DD90ED000A20EE000A574818
:10209000D0ED000A90ED001A00EE810ADFED5C0A37
:1020A000B4EEE00AF1EE10FA10D890ED000ADFED80
:1020B000510AB4EEE00AF1EE10FA07D290ED000AF0
:1020C000DFED4E0A30EE200A80ED000A454890ED23
:1020D000000ADFED4A0A30EE600A80ED000A43484C
:1020E000D0ED000A3F4890ED000AFEF717F91BE01B
:1020F0003C4890ED000A20EE000A3C48D0ED000A72
:1021000090ED001A00EE810ADFED400AB4EEE00A1D
:10211000F1EE10FA08D2334890ED000ADFED370AED
:1021200030EE200A80ED000A304890ED000A394870
:10213000D0ED000AB4EEE00AF1EE10FA6CD22B48B2
:1021400090ED000AB5EEC00AF1EE10FA7DDD2548EB
:1021500090ED000A20EE000A2448D0ED000A90ED30
:10216000001A00EE810ADFED220AB4EEE00AF1EE79
:1021700010FA52D21B4890ED000A20EE000A1B48CC
:10218000D0ED000A90ED001A00EE810ADFED1A0A88
:10219000B4EEE00AF1EE10FA11DB124890ED000AFD
:1021A000F7EE000AB4EEE00AF1EE10FA07DD90ED6A
:1021B000000ADFED120A30EE600A80ED000A0B48DB
:1021C00090ED000ADFED0D0A30EE200A80ED000AE6
:1021D000D0ED000A034890ED000AFEF79FF853E1A6
:1021E0002400002008000020180000200C0000201F
:1021F00000601F470000484300701447CDCCCC3D21
:1022000000017E4700197A47CDCCCCBD0028A046FE
:1022100000E0AB461C0000206EE0CB4890ED000AC9
:1022200020EE000AC948D0ED000A90ED001A00EE39
:10223000810A5FED110AB4EEE00AF1EE10FA09DB53
:1022400090ED000A5FED130A00E004E030EE600A52
:1022500080ED000A18E1BC4890ED000A20EE000A6B
:10226000BA48D0ED000A90ED001A00EE810ADFEDC9
:10227000B80AB4EEE00AF1EE10FA11D2B24890EDCD
:10228000000A5FED240AB4EEE00AF1EE10FA07D27C
:1022900090ED000A5FED270A30EE200A80ED000A7B
:1022A000AA4890ED000A5FED2B0A30EE200A80ED7F
:1022B000000AD0ED000AA44890ED000AFEF72EF8BF
:1022C000A14890ED000A20EE000AA048D0ED000AD7
:1022D00090ED001A00EE810ADFED9E0AB4EEE00AEE
:1022E000F1EE10FA07D890ED000A5FED3C0A30EEEF
:1022F000600A80ED000AC7E0944890ED000A964815
:10230000D0ED000AB4EEE00AF1EE10FA4FDD8F488E
:1023100090ED000AB5EEC00AF1EE10FA64DD8A48CD
:1023200090ED000A20EE000A8848D0ED000A90EDFA
:10233000001A00EE810ADFED890AB4EEE00AF1EE40
:1023400010FA35DD804890ED000A20EE000A7F4843
:10235000D0ED000A90ED001A00EE810ADFED800A50
:10236000B4EEE00AF1EE10FA11D2774890ED000ACF
:102370005FED600AB4EEE00AF1EE10FA07D290EDDC
:10238000000A5FED620A30EE200A80ED000A6F4815
:1023900090ED000A5FED670A30EE600A80ED000AFA
:1023A000D0ED000A684890ED000AFDF7B7FF6BE03A
:1023B000654890ED000A20EE000A6448D0ED000A5E
:1023C00090ED001A00EE810ADFED640AB4EEE00A37
:1023D000F1EE10FA58D890ED000A5FED780A30EE71
:1023E000200A80ED000A4FE0574890ED000A20EEE9
:1023F000000A5648D0ED000A90ED001A00EE810A5E
:10240000DFED530AB4EEE00AF1EE10FA11D24E48B5
:1024100090ED000AF7EE000AB4EEE00AF1EE10FAD1
:1024200007DD90ED000A5FED8B0A30EE200A80EDAB
:10243000000A464890ED000A5FED900A30EE600A0F
:1024400080ED000AD0ED000A3F4890ED000AFDF74C
:1024500065FF3D4890ED000A20EE000A3B48D0EDB4
:10246000000A90ED001A00EE810ADFED3A0AB4EEA0
:10247000E00AF1EE10FA07D890ED000A5FEDA10A2C
:1024800030EE200A80ED000A40F28A2000F08EF83B
:102490002D4890ED000A3348D0ED000AB4EE600AF2
:1024A000F1EE10FA7FF4EBAC284890ED000A2A48D0
:1024B000D0ED000AB4EE600AF1EE10FAF2D13AE083
:1024C0004FF08040806B28490988884207D24FF03E
:1024D0008040806B401C4FF08041886306E04FF0E5
:1024E0008040806B401E4FF0804188634FF416702F
:1024F00000F05CF84FF08040806B1B4909888842EF
:1025000006D94FF08040806B17490988401A0DD0DA
:102510004FF08040806B1449098888420BD24FF0FD
:102520008040806B10490988081A04D10E48008841
:102530004FF0804188634FF08040806B0A490988E2
:102540008842BDD110BD0000080000200C00002012
:1025500000A00C4700B808471C00002000A49F46BC
:1025600000B0B346180000202E0000204FF0E021FC
:10257000096921F004014FF0E0221161C21700EB5C
:102580005272C2F3C702074B1A701946097801EB61
:102590004102C2EBC1114FF6FF7202EAC101024AC9
:1025A00011807047000000200200002005E0642137
:1025B00000E0491E0029FCD1401E0028F7D17047D9
:1025C0000723022208214FF4A870FEF7B9FDA820C6
:1025D000FFF7CCFF00F03EF8FEF742F84FF4E13190
:1025E000542000F097F8532141F28730FEF762FE45
:1025F000532141F28730FEF70DFF0020114908609A
:1026000001201149C1F8A80240F2DC500F490860CE
:102610004FF4FA70091F08604FF4487041060864CF
:102620004FF47A70486340F2DC50C86300F05EF803
:1026300007E0FEF78DF806480068022801D1FEF792
:102640009DFFF6E7A882424200804242380C0040DB
:10265000280000201CB51D48006840F040001B49C0
:1026600008600846006840F00200086008460068FC
:1026700040F0100008600120032100230246CDE94C
:102680000010C1031248FDF749FF01200321002378
:102690000246CDE900104FF488710E48FDF73EFF69
:1026A0000120032100230246CDE9001001460A481B
:1026B000FDF734FF0020094908600949C1F8A0026C
:1026C000084908600849C1F8BC021CBD3038024006
:1026D0000018024000040240001002408002424202
:1026E00000804042908240420000434210B5FDF716
:1026F00085FF10BD054800880549086003484088EB
:102700000907086401488088486370474400002036
:10271000340C0040F0B52DED028B83B005460E461B
:10272000384905FB01F000EE100AF8EE400A3001CE
:1027300000EE100AB8EE400A80EE801AB0EE418A30
:10274000BCEEC80A10EE100A84B200EE104AB8EED1
:10275000400A38EE400AF3EE000A20EE200ABCEEF2
:10276000C00A10EE107A4FF6FF7000EA0414E01968
:1027700084B22548006840F00200234908602248DE
:102780001430006840F010001F4914310860012027
:10279000022100230A46CDE90010C0211B48FDF7A5
:1027A000BDFE072206211948FDF798FE07221146B3
:1027B0001648FDF793FE16480481808920F40040F6
:1027C000134988810846808940F0080088810846BE
:1027D000808940F0040088810846808940F020000C
:1027E00088810223252203210846FDF759FF084866
:1027F000808940F400500649888103B0BDEC028B0B
:10280000F0BD000040420F0030380240000402409A
:102810000010014021F00042A2F16052B2F5801F89
:1028200001F0004328BFD2F17F6C0BD95FEA001C96
:1028300043EAC20242EB507018BF704728BF20F035
:1028400001007047B2F5801FBCBF184670474FEAC1
:10285000410C1CF5001F02D2084600F0F7BC70B511
:1028600000F040FB00000089FFF7F6BF4FF000408A
:10287000A0F580007047000010B591EA030F48BF33
:1028800083F0004300F18A83841A71EB030C05D2B4
:10289000121943EB0C03001B61EB0C01DFF824E180
:1028A0004FEA1154A4EB135C1EEA430F18BF9EEAD3
:1028B000445F73D023EA0E03DCF1200E21EA0451B9
:1028C00043F4801332D322FA0CFE10EB0E0023FAED
:1028D0000CFE41EB0E01CCF1200E03FA0EFE10EBC4
:1028E0000E0051F10001B1F5801FCCF1200E32D263
:1028F00001EB045112FA0EF2BDE8104058BF7047C8
:10290000401C38BF5FEA420218BF7047002814BF5E
:1029100020F0010041F100014FEA410313F5001FCF
:1029200038BF7047A1F1C04100F02ABB012A43EB38
:102930000302ACF1200CDCF11F0E32BF4FF0000E91
:1029400023FA0CF310EB030041EB0451B4EB115FDD
:10295000D0D0A1EB045101F5801149085FEA3000A5
:1029600001EB04510ED350F1000038BF12FA0EFEF5
:1029700008D1BDE81040C9E7401C38BF5FEA4202F9
:10298000CAD1C3E7BDE810404FEA410313F5001F69
:1029900038BF7047A1F1C04100F0F2BA9EEA445F2F
:1029A00008D011EA5E0FBDE8104004BF01F00041FD
:1029B00000207047BDE8104070B500F093FA00BFEA
:1029C00064FBBE3E0000E0FF491058BFC1F140412A
:1029D0005B1058BFC3F140438B42EFF30080704758
:1029E0002DE9C04130B4DFF8A0C23CEA111418BF91
:1029F0003CEA131400F0EC8081EA03051CEA111490
:102A000044EAD57418BF1CEA131500F0C780A4EB84
:102A100005044FF0004545EAC12145EAC32341EAD8
:102A2000505143EA525304F17F74994204F5003443
:102A30004FEAC0204FEAC22208BF904200F09C80BB
:102A40004FEA13650FF24016765D4FEA134506FB19
:102A500005F7C7F1807706FB07F74FEAD737A7FBE3
:102A600003687642C8F58038A7FB06CE38BFA8F1C8
:102A7000010807FB08E64FF0000EA6FB028CE6FB00
:102A800003CEDCF1000CCEF1004E38BFAEF1010EEA
:102A9000A6FB0C584FF000074FF00005E6FB0E8731
:102AA000A1FB08C6A0FB07CE16EB0E0645F10005FC
:102AB000E1FB076515F1E04E7EBFA4F580345FEAC7
:102AC00046066D4116F1800745F100054FEA1727CC
:102AD0004FEA066647EA0567A6F1DE46B6F1805F73
:102AE0004FEA15251FD9384624F0010C05EBC471B7
:102AF000BCF1FE6F01EB0C1102D8F0BCBDE8008107
:102B000024425CBF01F5801E9EEAC47F02D4F0BC63
:102B1000BDE80081244238D4F0BCA1F1C041BDE839
:102B2000004100F02DBA4FEAD22242EA43524FEA66
:102B3000D323A7FB02864FEAD02040EA415007FB8F
:102B400003661EEA0E0F4FEAD12105FB026658BF4D
:102B5000A6EB0056B6EB00564FEA520E4EEAC37E85
:102B600018EB0E0E56EB530EBDD518EB02085E4166
:102B70007F1C55F10005B6E74FF480154FF00007B4
:102B80004FF000064FF00008ADE7F0BC4FF000003A
:102B900001F1C04101F00041BDE8008111EA0C1FC4
:102BA0000CEA131500D00CE013EA0C1F00F025808E
:102BB0004FF00000F0BC81EA030101F00041BDE8E4
:102BC0000081F0BCBDE8004181EA030100F0D8B902
:102BD000F0BCBDE8004170B500F084F9097EFC3E10
:102BE00000F007B881EA03014FF0000001F0004156
:102BF000704781EA030100F0C3B9F0BCBDE80041B1
:102C00004FF0000021497047FFFDFBF9F7F5F4F2A2
:102C1000F0EEEDEBE9E8E6E4E3E1E0DEDDDBDAD877
:102C2000D7D5D4D3D1D0CFCDCCCBCAC8C7C6C5C4D5
:102C3000C2C1C0BFBEBDBCBBBAB9B8B7B6B5B4B3EC
:102C4000B2B1B0AFAEADACABAAA9A8A8A7A6A5A4D7
:102C5000A3A3A2A1A09F9F9E9D9C9C9B9A9999989B
:102C60009797969595949393929191908F8F8E8E3E
:102C70008D8C8C8B8B8A89898888878786858584CB
:102C800084838382828181800000FF070000F87FB7
:102C900051EA030C17D41CF5801F58BFBCF5801FE8
:102CA00000F10680994218BF704708BF90427047F4
:102CB00007D711F5801F58BF13F5801F19D499420B
:102CC0007047894270471CF5801F08D5BCF5801FEE
:102CD000F7D58B4218BF704708BF824270474FF448
:102CE000001C1CEB410F38BF1CEB430F01D28B4281
:102CF000704770B500F0F6F8922449004FF000518B
:102D00004FF08053FFF760BE4FEA1153A3F5806385
:102D1000D3F11E03A8BFD3F1200C08DB4FF0004213
:102D200042EAC12252EA505232FA03F07047094295
:102D30000BD4102BC4BF0020704703F5787CBCF186
:102D4000FF3F05D04FF0FF3070474FF00000704755
:102D500070B500F0C7F800BF49922480002070478A
:102D6000F0E710F0004248BF4042B0FA80F310FA9A
:102D700003F10AD0C3F11D0303F580634FEA41500C
:102D800002EB035202EBD12170474FF00000704775
:102D9000DFF848C170B51CEA111E1EBF1CEA1315EE
:102DA0009EEA0C0F95EA0C0F00F06F8081EA030495
:102DB00023EA4C134EEAD47E21EA4C1141F48011EF
:102DC00043F48013AE44A1FB024CA0FB0365AEF1BB
:102DD0007F7E361955EB0C05A1FB034C4CF100032B
:102DE000A0FB021C16EB0C06654153F100030942DF
:102DF00018BF46F0010613F4007F0BD14FEA0331F0
:102E00004FEA0530340341EA155140EA16506FF09D
:102E100003020AE04FEAC3214FEAC520F40241EA67
:102E2000555140EA56506FF0020202EB2E4201EB80
:102E3000025585EACE710AD05FEA440C18BF24F02F
:102E4000004450F1000041F1000120EAD47040F24A
:102E5000FE7C624500D270BDA84214BF4FF0804492
:102E60004FF04044002E08BF0024BEF1806FA8BF81
:102E7000A1F1C041BDE8704080F282804FF00000B7
:102E800001F1C04101F0004170479EEA0C0F0CEACD
:102E9000131518BF95EA0C0F06D04FF0000081EA19
:102EA000030E0EF0004170BD00F01CF88900013ED9
:102EB00000F007B800F009B84FEA430C5FEA5C5C29
:102EC00008D081EA030100F05BB84FEA410C5FEAE9
:102ED0005C5CF6D14FF00000014970470000FF072D
:102EE0000000F87F0EF1020E2EF0030E5EF8046B68
:102EF000364205D4012A43EB030515F5001F12D80D
:102F0000012841EB010C1CF5001F0CD80ED14FEA33
:102F1000D17C15F5001F0CEB4C0C0CF1020C08BF1A
:102F20004CEBD37C04E04FF0080C01E04FEAD37C7B
:102F30000CEB4C0526FA05F606F00706B6F1040C74
:102F400006D20EEB860CBDE870404CF0010C6047D9
:102F5000DFE80CF0090B02024FF000414FF00000D7
:102F6000A1F5002170BD19461046012851EB01045E
:102F700018BFD4F5001484BF002001F0004170BDDB
:102F80000808A0F500114FEA3101704710B591EA29
:102F9000030F48BF83F000433FF576AC841A71EB12
:102FA000030C07D212198CF0004C43EB0C03001BEE
:102FB00061EB0C01DFF8A4E14FEA1154A4EB135CC0
:102FC0001EEA430F18BF9EEA445F00F0B08023EA78
:102FD0006E03524221EA0451C3EB6E0338BF5B1EFD
:102FE000DCF1200E25D322FA0CFE10EB0E0043FA82
:102FF0000CFE41EB0E01CCF1200E03FA0EFE10EB9D
:103000000E0051F10001CCF1200E29D412FA0EF27B
:1030100001EB0451BDE8104058BF7047401C1CBF75
:10302000B2F1004F704700280CBF491C20F001008E
:10303000704712EB020E43EB030218BF4FF0010E74
:103040004EEA4202ACF1200CDCF11E0E54D943FAD8
:103050000CFE10EB0E0051F1FF31CCF11E0ED5D558
:103060000EF1010E12FA0EFE404141EB010101EB9F
:10307000445C5FEA5C5C10D910EBDE7001EB04513C
:1030800038BFBEF1004FBDE8104018BF70470028A0
:103090000CBF491C20F00100704730D24FEAD42CFD
:1030A00011F5001124F400641BD0B1FA81F20B3A3F
:1030B000A41AA41ED2F12003914030FA03F319435D
:1030C000904001EBCC71002C01EB0451BDE81040A5
:1030D000A8BF704701F1C0414FF0000001F000416E
:1030E0007047B0FA80F310FA03F100D110BDE41A72
:1030F000173C4805C90AE4E701EB045110BD49102B
:1031000001EB0451BDE810404FEA300002E04FF0FF
:10311000000170474A0008BF0042F8D0B2F5001F16
:1031200028BF704701F000414FF0000070479EEA51
:10313000445F07D011EA5E0FBDE8104004BF0021D4
:1031400000207047BDE8104070B5FFF7CBFE00BF10
:1031500040DFF63E83F00041104670470000E0FF7C
:1031600043004FEAD30C4FEA3C0C43401FBF4007DB
:103170000CF1605113F0FE4F70471CF0006F03D14B
:1031800000200CF0004170470CF0004343EA5070FF
:1031900010B540EACC0000F00EF800BF000000922D
:1031A0004FEA0001FFF7ECBE4FF000414FF0000086
:1031B000A1F5002170470EF1020E2EF0030E5EF80D
:1031C000044B244204D44FEA4102B2F17F4F11D89C
:1031D0004FEA4003B3F17F4F0CD80ED14FEAD07CB9
:1031E000B2F17F4F0CEB4C0C0CF1020C08BF4CEB16
:1031F000D17C04E04FF0080C01E04FEAD17C0CEBED
:103200004C0324FA03F404F00704B4F1040C06D2CE
:103210000EEB840CBDE810404CF0010C6047DFE879
:103220000CF0070802024FF00040A0F5800010BD2E
:103230000846420018BFD2F1807288BF00F00040FB
:1032400010BD4FF04070E1EE100A7047FF2141EAD7
:10325000D050C00570470000783200080000002000
:1032600020030000C40100080835000820030020E6
:10327000C80500002802000872000100082B204148
:1032800000001643000183DC050210BE00002BF68F
:103290007F3F06D87F3F37A67F3F18607F3F4F06AE
:1032A0007F3FDD987E3FC2177E3F56827D3F40D9EB
:1032B0007C3F821C7C3F1B4C7B3F0A687A3F5070EE
:1032C000793F9565783F3047773F2315763F14D097
:1032D000743FAB78733F990D723F868F703F19FF33
:1032E0006E3FAB5B6D3FE3A56B3F6ADE693FEF036B
:1032F000683F1A17663F3B19643F0309623F19E7AD
:103300005F3F24B45D3F7E6F5B3FCE19593F14B3DE
:10331000563FF73B543FD0B3513FEF1B4F3FAC7389
:103320004C3F06BB493F4DF3463F331B443FAD3452
:10333000413F6C3E3E3FC1393B3FAB26383F2905FC
:10334000353F3DD5313F8D972E94102F2B3F8CF379
:10335000273FE38D243F1E1B213FE59B1D3FE010CF
:103360001A3F6879163F24D6123F13270F3F876D07
:103370000B3FD6A8073FA9D9033FFD10713F043981
:10338000F83E5F5EF03E6171E83E0872E03EA66185
:10339000D83E3A40D03EC30DC83EE2CCBF3E467C4C
:1033A000B73E3F1DAF3E1CB1A63EDF379E3E85B106
:1033B000953EB0208D3E0E84843EE0B9773E4B5959
:1033C000663E5CE6543EB263433E4ED1313E302F02
:1033D000203E95820E3EFB96F93DD313D63DF180FB
:1033E000B23D55DE8E3D7862563D4DF30E04278E7C
:1033F0003C76110812BC1012BD1812BD2012BD2857
:1034000012BD3012BD3812BD4012BE4812BE50125D
:10341000BE5812BE6012BE6812BE7012BE7812BED6
:103420008012BE8812BE9012BE9812BEA012BEA814
:1034300012BEB012BEB812BEC012BEC812BED012AA
:10344000BED812BEE012BEE816BEED12BFF816BF1F
:103450000016BF0816BF1016BF1816BF2016BF28CB
:1034600016BF3016BF3816BF4016BF4816BF5016DD
:10347000BF5816BF6016BF6816BF7016BF7816BF5C
:103480008016BF8816BF9016BF9816BFA016BFA89B
:1034900016BFB016BFB816BFC016BFC816BFD0162D
:1034A000BFD816BFE016BFE816BFF016BFF81ABFA8
:1034B000001ABF081ABF101ABF181ABF201ABF2857
:1034C0001ABF301ABF381ABF401ABF481ABF501A65
:1034D000BF581ABF601ABF681ABF7011941B7BBF18
:1034E000801ABF881ABF901ABF981ABFA01ABFA827
:1034F0001ABFB01ABFB81ABFC01ABFC81005BF00A4
:0835000000800403000000003C
:040000050800018965
:00000001FF
